:020000040800F2
:1000000000500020FD240008D5030008D703000895
:10001000D9030008DB030008DD030008000000002E
:10002000000000000000000000000000DF030008E6
:10003000E103000800000000E3030008E5030008F6
:1000400045250008452500084525000845250008E8
:1000500045250008452500084525000845250008D8
:1000600045250008452500084525000845250008C8
:100070004525000845250008ED030008FD0300089C
:100080000D0400081D04000845250008452500084A
:100090004525000845250008452500084525000898
:1000A0004525000845250008452500084525000888
:1000B0002D040008452500084525000845250008B1
:1000C0004525000845250008452500084525000868
:1000D000452500083D0400084D040008452500089A
:1000E00045250008452500084525000800000000BA
:1000F0000000000000000000000000000000000000
:0C01000000000000000000005FF808F1A3
:10010C000348044B834202D0034B03B1184770479A
:10011C000C0000200C000020000000000548064BDD
:10012C001B1AD90F01EBA301491002D0034B03B1E9
:10013C00184770470C0000200C0000200000000045
:10014C0010B5064C237843B9FFF7DAFF044B13B113
:10015C000448AFF300800123237010BD0C00002075
:10016C00000000004825000808B5044B1BB10449E9
:10017C000448AFF30080BDE80840CFE70000000062
:10018C00100000204825000870B50F4B0F4DAB42F6
:10019C00A3EB050607D00024B61055F8043B013438
:1001AC009847A642F9D802F0C9F9094D094B5E1BD4
:1001BC00AB424FEAA60606D0002455F8043B0134A6
:1001CC009847A642F9D870BDA4250008A4250008BC
:1001DC00A4250008A825000870B5860747D0541E32
:1001EC00002A3ED00346CAB201E0013C39D303F8E1
:1001FC00012B9D07F9D1032C2CD9CDB205EB05258C
:10020C000F2C1A4605EB054534D9A4F1100C2CF033
:10021C000F0603F1100EB6444FEA1C1CC2E9005540
:10022C00C2E9025510327245F8D10CF1010214F0FA
:10023C000C0F03EB021204F00F0C13D0ACF10403FF
:10024C0023F003030433134442F8045B9342FBD1C1
:10025C000CF003042CB1C9B21C4403F8011BA342DB
:10026C00FBD170BD64461346002CF4D1F9E703466C
:10027C001446C0E7A446E1E772B6FEE700B591B0BC
:10028C002822002106A8FFF7A7FF00230193029361
:10029C00039304930593012206924FF48033079342
:1002AC000A9202220D920E934FF4E0130F9306A8BC
:1002BC0000F050F980B90F23019302210291002321
:1002CC0003934FF480620492059301A800F074FB31
:1002DC0020B911B05DF804FBFFF7CEFFFFF7CCFFA0
:1002EC0000B587B002F029F900F0FAF8FFF7C6FF65
:1002FC0000F02EF800F010FF00F090FF01F08CF8E9
:10030C0001F070F800F03AFF01F02CF83C210D4898
:10031C0001F0FFFC0C4B0DF1080C0FCBACE8070007
:10032C008CF8003000230193064B1B685B6A019329
:10033C004FF47A7304220DEB0201044801F0A3FE82
:10034C00F2E700BFC800002060250008680200200A
:10035C0030B589B000240494059406940794184B86
:10036C009A6942F020029A619A6902F02002019285
:10037C00019A9A6942F004029A619A6902F00402A5
:10038C000292029A9A6942F008029A619B6903F000
:10039C0008030393039B0B4D22464FF440712846F0
:1003AC0000F0F4FC4FF4407304930123059306947E
:1003BC000223079304A9284600F0DAFB09B030BDEC
:1003CC0000100240000C0140FEE7FEE7FEE7FEE7EE
:1003DC00FEE770477047704708B500F093F808BD0A
:1003EC0008B5024800F07CFD08BD00BF9801002054
:1003FC0008B5024800F074FD08BD00BFDC01002008
:10040C0008B5024800F06CFD08BD00BF5401002087
:10041C0008B5024800F064FD08BD00BF10010020C3
:10042C0008B5024801F051FA08BD00BFC800002011
:10043C0008B5024801F01AFF08BD00BF6802002091
:10044C0008B5024801F012FF08BD00BF20020020D1
:10045C0082B00E4B9A6942F001029A619A6902F0DD
:10046C0001020092009ADA6942F08052DA61DB698B
:10047C0003F080530193019B054A536823F0E0631A
:10048C0043F00073536002B0704700BF001002408D
:10049C000000014010B504460E4B1A784FF47A73E5
:1004AC00B3FBF2F30C4A1068B0FBF3F000F01EFE45
:1004BC0068B90F2C01D901200AE0002221464FF027
:1004CC00FF3000F0F5FD054B1C60002000E0012022
:1004DC0010BD00BF00000020080000200400002018
:1004EC0008B5074A136843F010031360032000F0AB
:1004FC00CDFD0F20FFF7CEFFFFF7AAFF002008BDB0
:10050C0000200240034A1168034B1B780B44136014
:10051C00704700BF2800002000000020014B186825
:10052C00704700BF2800002082B0084B1B68084AA7
:10053C00A2FB03235B0A00FB03F3019300BF019BA7
:10054C005A1E0192002BF9D102B07047080000200E
:10055C00D34D6210002800F0F18170B582B00446D2
:10056C00036813F0010F2CD0994B5B6803F00C035C
:10057C00042B1DD0964B5B6803F00C03082B12D098
:10058C006368B3F5803F41D0002B55D103F1804314
:10059C0003F504331A6822F480321A601A6822F4C4
:1005AC0080221A6037E08A4B5B6813F4803FE7D0F7
:1005BC00874B1B6813F4003F03D06368002B00F0DB
:1005CC00BF81236813F0020F75D0814B5B6813F069
:1005DC000C0F5FD07E4B5B6803F00C03082B54D0E0
:1005EC002369002B00F08A807A4B01221A60FFF7F6
:1005FC0095FF0546764B1B6813F0020F75D1FFF77C
:10060C008DFF401B0228F5D903209EE1704A136828
:10061C0043F480331360636843B3FFF77FFF0546F1
:10062C006B4B1B6813F4003FCBD1FFF777FF401BDC
:10063C006428F5D9032088E1B3F5A02F09D0644BC9
:10064C001A6822F480321A601A6822F480221A6026
:10065C00E1E703F18043A3F53C331A6842F48022AE
:10066C001A601A6842F480321A60D4E7FFF756FF1A
:10067C000546574B1B6813F4003FA2D0FFF74EFF03
:10068C00401B6428F5D903205FE1514B5B6813F4E0
:10069C00803FA5D14E4B1B6813F0020F03D023698A
:1006AC00012B40F04F814A4A136823F0F80361692B
:1006BC0043EAC1031360236813F0080F33D0A36916
:1006CC00002B5CD0434B0122C3F88024FFF726FF9C
:1006DC0005463F4B5B6A13F0020F21D1FFF71EFF5B
:1006EC00401B0228F5D903202FE1394A136823F067
:1006FC00F803616943EAC1031360DCE7354B002260
:10070C001A60FFF70BFF0546314B1B6813F0020F05
:10071C00D1D0FFF703FF401B0228F5D9032014E1C9
:10072C000120FFF701FF236813F0040F00F09680FF
:10073C00274BDB6913F0805F34D1254BDA6942F02B
:10074C008052DA61DB6903F080530193019B012530
:10075C00214B1B6813F4807F26D0E368012B3DD01E
:10076C00002B53D103F1804303F504331A6A22F0B2
:10077C0001021A621A6A22F004021A6233E0154B63
:10078C000022C3F88024FFF7C9FE0546104B5B6AB4
:10079C0013F0020FC7D0FFF7C1FE401B0228F5D99A
:1007AC000320D2E00025D3E70B4A136843F480738F
:1007BC001360FFF7B3FE0646074B1B6813F4807FEC
:1007CC00CBD1FFF7ABFE801B6428F5D90320BCE02E
:1007DC000010024000004242007000405F4A136A61
:1007EC0043F001031362E36833B3FFF797FE064649
:1007FC005A4B1B6A13F0020F2FD1FFF78FFE801B91
:10080C0041F288339842F3D903209EE0052B09D09E
:10081C00524B1A6A22F001021A621A6A22F004027E
:10082C001A62E0E74D4B1A6A42F004021A621A6A25
:10083C0042F001021A62D6E7FFF770FE0646474BFC
:10084C001B6A13F0020F08D0FFF768FE801B41F201
:10085C0088339842F3D9032077E0E5B9E369002B9C
:10086C0072D03E4A526802F00C02082A56D0022B73
:10087C0017D03B4B00221A66FFF750FE0446374B4D
:10088C001B6813F0007F47D0FFF748FE001B0228BF
:10089C00F5D9032059E0314AD36923F08053D36151
:1008AC00DCE72F4B00221A66FFF738FE05462B4B70
:1008BC001B6813F0007F06D0FFF730FE401B0228A8
:1008CC00F5D9032041E0236AB3F5803F1AD02349C0
:1008DC004B6823F47413226A606A024313434B601F
:1008EC001F4B01221A66FFF719FE04461B4B1B68AF
:1008FC0013F0007F0ED1FFF711FE001B0228F5D973
:10090C00032022E0154A536823F40033A1680B43FB
:10091C005360DCE7002018E0002016E0012B16D015
:10092C000E4B5B6803F48031226A914211D103F4BF
:10093C007013626A93420ED1002006E001207047CA
:10094C00012002E0012000E0002002B070BD012077
:10095C00FBE70120F9E70120F7E700BF0010024098
:10096C00000042420F4B5B6803F00C02082A01D0D6
:10097C000D487047C3F383420C49885C13F4803FE5
:10098C000BD0084B5B68C3F34043094AD35C064A5F
:10099C0002FB00F0B0FBF3F07047064B03FB00F0DA
:1009AC00704700BF0010024000127A007425000846
:1009BC007025000800093D00002800F0A08070B5EB
:1009CC000D460446524B1B6803F007038B420BD2B7
:1009DC004F4A136823F007030B431360136803F0AB
:1009EC0007038B4240F08D80236813F0020F17D061
:1009FC0013F0040F04D0474A536843F4E063536088
:100A0C00236813F0080F04D0424A536843F4605330
:100A1C005360404A536823F0F003A1680B435360C2
:100A2C00236813F0010F31D06368012B20D0022B07
:100A3C0025D0384A126812F0020F64D035494A6842
:100A4C0022F0030213434B60FFF768FD0646314B5F
:100A5C005B6803F00C036268B3EB820F16D0FFF7F0
:100A6C005DFD801B41F288339842F0D9032045E0AC
:100A7C00284A126812F4003FE0D101203EE0254ADA
:100A8C00126812F0007FD9D1012037E0204B1B688F
:100A9C0003F00703AB420AD91D4A136823F007037E
:100AAC002B431360136803F00703AB422DD123686B
:100ABC0013F0040F06D0174A536823F4E063E1687F
:100ACC000B435360236813F0080F07D0114A536887
:100ADC0023F46053216943EAC1035360FFF742FFDB
:100AEC000C4B5B68C3F303130B4AD35CD8400B4B22
:100AFC0018600B4B1868FFF7CDFC002070BD01206F
:100B0C0070470120FAE70120F8E70120F6E700BF63
:100B1C0000200240001002408C2500080800002034
:100B2C0004000020014B1868704700BF080000202B
:100B3C0008B5FFF7F7FF044B5B68C3F30223034AC6
:100B4C00D35CD84008BD00BF0010024084250008CB
:100B5C0008B5FFF7E7FF044B5B68C3F3C223034AF6
:100B6C00D35CD84008BD00BF0010024084250008AB
:100B7C0070B582B00024A446A1E07E4DAB4214D0E7
:100B8C000CD8A5F58015AB420FD005F57025AB42FE
:100B9C000BD0A5F58015AB4210D106E0764DAB42DB
:100BAC0003D005F58035AB4208D18B68002B50D0B3
:100BBC00012B49D04261082400E0CC68BEF1FF0F44
:100BCC0049D806464FEA8C0233680F25954023EA34
:100BDC00050304FA02F2134333604B6813F0805F91
:100BEC006BD0664B9A6942F001029A619B6903F0E3
:100BFC0001030193019B4FEA9C02951C604B53F837
:100C0C0025600CF00305AD000F23AB4026EA03066C
:100C1C005C4B984226D003F58063984200F08C80A0
:100C2C0003F58063984200F0898003F58063984255
:100C3C0016D0042317E0CC680434BFE7CC68083422
:100C4C00BCE7CC680C34B9E702610824B6E7002491
:100C5C00B4E70424B2E7061DACF108029200B3E736
:100C6C00032300E00023AB4033430232444D45F8EC
:100C7C0022304B6813F4801F62D0434A936843EAD6
:100C8C000E0393604B6813F4001F5FD03E4AD36889
:100C9C0043EA0E03D3604B6813F4003F5CD03A4A2E
:100CAC00536843EA0E0353604B6813F4803F59D0EA
:100CBC00354A136843EA0E0313600CF1010C0B6800
:100CCC0033FA0CF254D0012202FA0CF203EA020EAF
:100CDC0032EA0303F1D14B68122B3FF64EAF122BC5
:100CEC003FF66CAF01A555F823F000BFB70B000819
:100CFC00C70B0008490C00085B0C0008C90B000866
:100D0C00C90B0008C90B0008C90B0008C90B000867
:100D1C00C90B0008C90B0008C90B0008C90B000857
:100D2C00C90B0008C90B0008C90B0008C90B000847
:100D3C00430C00084F0C0008012394E7022392E7B0
:100D4C00114A936823EA0E0393609BE70E4AD3681B
:100D5C0023EA0E03D3609EE70B4A536823EA0E0383
:100D6C005360A1E7084A136823EA0E031360A4E753
:100D7C0002B070BD000022100000311000100240C3
:100D8C000000014000080140000401400AB101616B
:100D9C00704709040161704750B310B402460168F2
:100DAC00144B0B441448A0FB03031B099B00136456
:100DBC00124BD363022382F8213008686FF30D10B5
:100DCC00536894682343D4682343146923435469B8
:100DDC00234394692343D469234303430B600020CA
:100DEC009063012382F8213082F8200010BC7047F8
:100DFC0001207047F8FFFDBFCDCCCCCC00000240E9
:100E0C00034690F82120D2B2022A06D00422826333
:100E1C00002280F820200120704701680A6822F027
:100E2C000E020A6001680A6822F001020A60026C74
:100E3C00C06B012101FA02F2426083F821100020FC
:100E4C0083F820007047000008B590F82130DBB221
:100E5C00022B03D004238363012008BD02681368AE
:100E6C0023F00E0313600268136823F00103136070
:100E7C000368194A934214D0143293421FD014328F
:100E8C0093421ED0143293421ED0143293421ED081
:100E9C001432934202D04FF0807203E04FF4801270
:100EAC0000E001220D4B5A60012380F82130002311
:100EBC0080F82030436B6BB198470020CDE71022AF
:100ECC00F0E74FF48072EDE74FF48052EAE74FF40D
:100EDC008032E7E70020C0E7080002400000024033
:100EEC0038B5C36B1A6804682568016C04238B4001
:100EFC00134235D015F0040F32D0236813F0200FB5
:100F0C0003D1236823F0040323600368434A93420C
:100F1C0014D01432934218D01432934217D0143296
:100F2C00934217D01432934217D01432934202D00A
:100F3C004FF0806203E04FF4800200E00422384B53
:100F4C005A60C36A03B1984738BD4022F7E74FF4A3
:100F5C008062F4E74FF48042F1E74FF48022EEE731
:100F6C0002238B4013423CD015F0020F39D023687A
:100F7C0013F0200F06D1236823F00A03236001230A
:100F8C0080F821300368254A934214D014329342DE
:100F9C001CD0143293421BD0143293421BD0143207
:100FAC0093421BD01432934202D04FF0007203E0F4
:100FBC004FF4001200E00222194B5A60002380F813
:100FCC002030836A002BBFD09847BDE72022F3E77F
:100FDC004FF40072F0E74FF40052EDE74FF400329B
:100FEC00EAE708238B401342AED015F0080FABD0C4
:100FFC00236823F00E032360026CC16B012303FAF8
:10100C0002F24A60836380F82130002380F820309C
:10101C00036B002B98D0984796E700BF080002405E
:10102C0000000240002808DB0901C9B200F1604051
:10103C0000F5614080F80013704700F00F000901C3
:10104C00C9B2014B1954704714ED00E000B500F023
:10105C000700C0F1070CBCF1040F28BF4FF0040CC3
:10106C00031D062B0FD9C31E4FF0FF3E0EFA0CF0DA
:10107C0021EA000199400EFA03FE22EA0E0241EA2F
:10108C0002005DF804FB0023EEE70000074AD3687A
:10109C0023F4E0631B041B0C000200F4E060034328
:1010AC0043F0BF6343F40033D360704700ED00E0BE
:1010BC0010B50446054BD868C0F30220FFF7C6FFF5
:1010CC0001462046FFF7AEFF10BD00BF00ED00E06B
:1010DC00002807DB00F01F02400901239340024A5D
:1010EC0042F82030704700BF00E100E00138B0F159
:1010FC00807F0BD24FF0E0235861054AF02182F833
:10110C0023100020986107221A6170470120704754
:10111C0000ED00E07047000000B583B0164B5A6933
:10112C0042F001025A615B6903F001030193019BD8
:10113C00002211460E20FFF7BBFF0E20FFF7C8FF61
:10114C00002211460F20FFF7B3FF0F20FFF7C0FF5F
:10115C00002211461020FFF7ABFF1020FFF7B8FF5D
:10116C00002211461120FFF7A3FF1120FFF7B0FF5B
:10117C0003B05DF804FB00BF0010024008B50B483B
:10118C000B4B03600B4B436000238360C3604FF435
:10119C008042026143618361C361036200F036FAED
:1011AC0000B908BDFFF768F8FBE700BF2C00002072
:1011BC0000540040A086010010B586B000230293B5
:1011CC000393049305930268114B9A4201D006B025
:1011DC0010BD104CA36943F00803A361A36903F08D
:1011EC0008030093009BC023029312230393032351
:1011FC00059302A90848FFF7BBFCE36943F400130D
:10120C00E361E36903F400130193019BDFE700BF83
:10121C000054004000100240000C014000B58DB09D
:10122C002422002103A8FEF7D7FF00230193029389
:10123C0012484FF080420260436083604FF6FF72A9
:10124C00C260036183610323039301230593099314
:10125C0003A900F057FC50B900230193029301A994
:10126C00064800F0BDFD28B90DB05DF804FBFFF792
:10127C0003F8F1E7FFF700F8F6E700BFC80000201D
:10128C0000B587B00023029303930493059303687E
:10129C00B3F1804F02D007B05DF804FB03F50433C3
:1012AC00DA6942F00102DA61DA6902F001020092B5
:1012BC00009A9A6942F004029A619B6903F0040354
:1012CC000193019B0323029302A90648FFF750FCEC
:1012DC00002211461C20FFF7EBFE1C20FFF7F8FE46
:1012EC00D9E700BF000801400268094B9A4200D0C0
:1012FC00704782B003F50333DA6942F00202DA6117
:10130C00DB6903F002030193019B02B0704700BF3D
:10131C000004004000B587B00023029303930493AC
:10132C00059302680D4B9A4202D007B05DF804FB9E
:10133C0003F503339A6942F004029A619B6903F046
:10134C0004030193019B402302930223039305930F
:10135C0002A90348FFF70CFCE7E700BF00040040BC
:10136C000008014000B58BB000230893099301934A
:10137C000293039304930593069307931748184A13
:10138C00026009224260836040F28332C2600361D2
:10139C00836100F08BFBC0B900230893099308A963
:1013AC000E4800F01DFD98B96023019300220292B3
:1013BC000392059201A9094800F02EFC58B9074880
:1013CC00FFF7A8FF0BB05DF804FBFEF755FFE3E752
:1013DC00FEF752FFE8E7FEF74FFFF0E78000002032
:1013EC000004004008B50A480A4B03604FF4E1338F
:1013FC00436000238360C36003610C2242618361FC
:10140C00C36100F010FE00B908BDFEF735FFFBE725
:10141C00680200200038014008B50A480A4B0360F6
:10142C004FF4E133436000238360C36003610C22FB
:10143C0042618361C36100F0F6FD00B908BDFEF79F
:10144C001BFFFBE7200200200044004070B588B071
:10145C0004460023049305930693079303685F4A9D
:10146C00934204D05E4A93425DD008B070BD5D4B90
:10147C009A6942F480429A619A6902F4804200921D
:10148C00009A9A6942F004029A619B6903F0040382
:10149C000193019B4FF400730493022305930323E0
:1014AC000793514E04A93046FFF762FB4FF480635B
:1014BC00049300250595069504A93046FFF758FBC3
:1014CC004A484B4B0360456085608023C3600561CF
:1014DC0045618561C561FFF75FFCF0B9434BE36380
:1014EC005C624448444B03601023436000238360D8
:1014FC008022C260036143618361C361FFF74CFCCE
:10150C0070B93C4BA3635C62002211462520FFF7A7
:10151C00CFFD2520FFF7DCFDA7E7FEF7ADFEDDE7ED
:10152C00FEF7AAFEEDE72F4BDA6942F40032DA61DE
:10153C00DA6902F400320292029A9A6942F00402C9
:10154C009A619B6903F004030393039B04230493A4
:10155C000223059303230793234E04A93046FFF778
:10156C0007FB0823049300250595069504A930462E
:10157C00FFF7FEFA2148224B03604560856080230B
:10158C00C360056145618561C561FFF705FCF0B974
:10159C001A4BE3635C621B481B4B036010234360D4
:1015AC00002383608022C260036143618361C36155
:1015BC00FFF7F2FB70B9134BA3635C620022114678
:1015CC002620FFF775FD2620FFF782FD4DE7FEF77D
:1015DC0053FEDDE7FEF750FEEDE700BF003801409B
:1015EC00004400400010024000080140DC010020D3
:1015FC005800024098010020440002405401002091
:10160C006C0002401001002080000240002800F015
:10161C00CC8070B5044690F83D30002B77D0242355
:10162C0084F83D302268136823F0010313602268AC
:10163C00136843F4004313602268136823F40043D7
:10164C001360FFF775FA62685A4B9A4264D85A4B8A
:10165C0098428CBF00230123002B40F0A8805749EF
:10166C00A1FB00318B0C25686A6822F03F0242EA2C
:10167C0091426A6021680A6A22F03F0266684D4D09
:10168C00AE424FD8013313430B622168CA6922F46E
:10169C004F4222F0FF026568464B9D424CD8431ED8
:1016AC006D00B3FBF5F3013340F6FC70034278D0C8
:1016BC00C3F30B031A43CA6121680B6823F0C00300
:1016CC00E269206A024313430B6021688B6823F4A0
:1016DC00034323F0FF032269E068024313438B604A
:1016EC002168CB6823F0FF036269A06902431343AE
:1016FC00CB602268136843F0010313600020206460
:10170C00202384F83D30206384F83E0070BD80F8BF
:10171C003C30FFF751FD82E7294B98428CBF0023E8
:10172C00012399E74FF4967505FB03F3254DA5FBB3
:10173C0003539B090133A6E7A668BEB9431E05EB0C
:10174C00450CB3FBFCF30133C3F30B03B3FA83F384
:10175C005B0943BBC6B9431E05EB4505B3FBF5F36B
:10176C000133C3F30B0343F40043A3E7431E05EB20
:10177C00850C0CEB8C0CB3FBFCF30133C3F30B03A8
:10178C00B3FA83F35B09E4E7431E05EB850505EB30
:10179C008505B3FBF5F30133C3F30B0343F440436B
:1017AC0088E7042386E7012384E7012070470120A2
:1017BC00ACE700BFA08601007F841E0083DE1B43C4
:1017CC00FF083D00D34D621030B4026A036A23F067
:1017DC00010303624568836923F073030C681C439F
:1017EC0022F002028B6813430B4A904206D04560EC
:1017FC0084614A684263036230BC704723F008037B
:10180C00CA681A4322F0040325F440754A692A4336
:10181C008D691543EBE700BF002C014030B4036A1F
:10182C00026A22F4807202624468C26922F0730276
:10183C000D68154323F400738A6843EA02230D4AAA
:10184C00904206D04460C5614A68C263036230BCF2
:10185C00704723F40063CA6843EA022323F48063CD
:10186C0024F440544A6944EA02148A6944EA021492
:10187C00E8E700BF002C014030B4036A026A22F48E
:10188C00805202624468C26922F4E6420D6842EA60
:10189C00052223F400538D6843EA0533074DA84213
:1018AC0006D04460C2614A680264036230BC70476F
:1018BC0024F480444D6944EA8514F2E7002C01407D
:1018CC007047704770477047704770B5044603689F
:1018DC00DE681D6915F0020F10D016F0020F0DD046
:1018EC006FF002021A610123037703689B6913F0FE
:1018FC00030F5ED0FFF7E6FF0023237715F0040FEC
:10190C0012D016F0040F0FD023686FF004021A6186
:10191C000223237723689B6913F4407F4FD0204622
:10192C00FFF7D0FF0023237715F0080F12D016F025
:10193C00080F0FD023686FF008021A610423237775
:10194C002368DB6913F0030F40D02046FFF7BAFF82
:10195C000023237715F0100F12D016F0100F0FD0B4
:10196C0023686FF010021A61082323772368DB6960
:10197C0013F4407F31D02046FFF7A4FF00232377D8
:10198C0015F0010F02D016F0010F2DD115F0800FBC
:10199C0002D016F0800F2FD115F0400F02D016F0A8
:1019AC00400F31D115F0200F02D016F0200F33D19B
:1019BC0070BDFFF786FF2046FFF785FF9CE72046AA
:1019CC00FFF77FFF2046FFF77EFFABE72046FFF7D0
:1019DC0078FF2046FFF777FFBAE72046FFF771FF45
:1019EC002046FFF770FFC9E723686FF001021A6108
:1019FC002046FFF765FFC9E723686FF080021A6184
:101A0C00204600F024FAC7E723686FF040021A6101
:101A1C002046FFF759FFC5E723686FF020021A61D3
:101A2C00204600F013FAC3E703681F4A90420AD01D
:101A3C00B0F1804F07D0A2F59432904203D002F55A
:101A4C008062904203D123F070034A681343164A14
:101A5C0090420AD0B0F1804F07D0A2F59432904258
:101A6C0003D002F58062904203D123F44073CA681C
:101A7C00134323F080034A69134303608B68C362EA
:101A8C000B688362084B98420AD0012343610369B7
:101A9C0013F0010F03D0036923F0010303617047B6
:101AAC000B690363F1E700BF002C014040B310B594
:101ABC00044690F83D30F3B1022384F83D302146C2
:101ACC0051F8040BFFF7B0FF012384F8463084F87B
:101ADC003E3084F83F3084F8403084F8413084F84C
:101AEC00423084F8433084F8443084F8453084F82C
:101AFC003D30002010BD80F83C30FFF7F5FBDBE7F4
:101B0C0001207047002856D070B50D46044690F859
:101B1C003D30002B4AD0022384F83D302268936874
:101B2C0023F4804323F007039360214651F8040B00
:101B3C00FFF77AFF21688B688A690E6A2868184358
:101B4C0022F4407222F00302AB68D5F818C043EAC5
:101B5C000C23134323F47C4323F0FC03EA68D5F8ED
:101B6C001CC042EA0C221A432B6A1B03D5F810C086
:101B7C0043EA0C13134326F022066A686D6942EAA5
:101B8C0005123243886021688B6123681A62012335
:101B9C0084F8463084F83E3084F83F3084F8423084
:101BAC0084F8433084F83D30002070BD80F83C3020
:101BBC00FFF766FBAFE701207047000030B4036A03
:101BCC00026A22F0100202624468826922F4E64240
:101BDC000D6842EA052223F020038D6843EA0513C1
:101BEC000C4DA84206D0446082614A68826303624D
:101BFC0030BC704723F08003CD6843EA051323F013
:101C0C00400324F440644D6944EA85048D6944EA38
:101C1C008504E8E7002C014038B590F83C30012BE6
:101C2C0066D004460D46012380F83C300C2A5AD865
:101C3C00DFE802F0075959591B595959305959596C
:101C4C0044000068FFF7C0FD2268936943F0080365
:101C5C0093612268936923F004039361226893696A
:101C6C0029690B43936100203EE00068FFF7A6FF53
:101C7C002268936943F4006393612268936923F4A7
:101C8C008063936122689369296943EA0123936114
:101C9C00002029E00068FFF7C1FD2268D36943F0FA
:101CAC000803D3612268D36923F00403D36122684B
:101CBC00D36929690B43D361002015E00068FFF755
:101CCC00DBFD2268D36943F40063D3612268D369D6
:101CDC0023F48063D3612268D369296943EA012321
:101CEC00D361002000E00120002384F83C3038BD93
:101CFC000220FCE701F01F014FF0010C0CFA01FC73
:101D0C00036A23EA0C030362036A8A4013430362E7
:101D1C00704738B5044690F83E00C0B294F83F3096
:101D2C0094F84220D2B294F843C00D46B1B90128C0
:101D3C0049D1012A48D1022384F83E3084F842303C
:101D4C007DB3042D39D0012200212068FFF7D2FF8A
:101D5C00012204212068FFF7CDFF27E0DBB25FFAF8
:101D6C008CFC042912D0012833D1012B2CD1012A4F
:101D7C0031D1BCF1010F30D1022384F83E3084F80C
:101D8C003F3084F8423084F84330D9E7012B1CD122
:101D9C00BCF1010F1BD1022384F83F3084F843308F
:101DAC00CEE7012200212068FFF7A4FF2268136808
:101DBC0043F001031360002006E001220421206897
:101DCC00FFF798FFF2E7012038BD0120FCE7184629
:101DDC00FAE70120F8E71846F6E71046F4E70000AA
:101DEC0090F83C20012A2CD010B40346012280F834
:101DFC003C20022280F83D2002685068946820F054
:101E0C00700C086840EA0C0050601A680E48824258
:101E1C000AD0B2F1804F07D0A0F59430824203D0A3
:101E2C0000F58060824204D124F08004496821438B
:101E3C009160012283F83D20002083F83C0010BC07
:101E4C0070470220704700BF002C0140704770475C
:101E5C00026802F10C0353E8003F23F490730C3238
:101E6C0042E800310029F3D1026802F1140353E86F
:101E7C00003F23F00103143242E800310029F3D172
:101E8C00036B012B05D0202380F842300023036321
:101E9C007047026802F10C0353E8003F23F0100373
:101EAC000C3242E800310029F3D1ECE790F84130D4
:101EBC00DBB2212B01D0022070478368B3F5805F21
:101ECC0017D0036A5A1C02621A7803685A60C38CD2
:101EDC009BB2013B9BB2C3844BB90268D36823F01D
:101EEC008003D3600268D36843F04003D3600020C2
:101EFC0070470369002BE4D1036A1B880268C3F3A3
:101F0C0008035360036A02330362E0E710B504462A
:101F1C000268136923F44053C1680B43136183684F
:101F2C000269134342691A430168CB6823F4B05326
:101F3C0023F00C031343CB600268536923F4407302
:101F4C0081690B4353610268134B9A4220D0FEF710
:101F5C00EFFD024602EB820202EB820263689B00F9
:101F6C00B2FBF3F20D48A0FB02314909642303FBD9
:101F7C0011231B013233A0FB03035B0903F0F002B6
:101F8C0002EB011203F00F03216813448B6010BDA8
:101F9C00FEF7DEFD0246DDE7003801401F85EB5100
:101FAC002DE9F04383B005460E4617469946DDF8F9
:101FBC0028802B681C6836EA04040CBF012400241A
:101FCC00BC4228D1B8F1FF3FF3D0FEF7A7FAA0EB43
:101FDC000900404523D8B8F1000F22D02B68DA68ED
:101FEC0012F0040FE5D0802EE3D0402EE1D01A6819
:101FFC0012F0080FDDD0002401941A6801925B687E
:10200C000193019B2846FFF723FF08236B6485F897
:10201C004040012000E0002003B0BDE8F083032025
:10202C00FAE70320F8E760B310B5044690F84130A6
:10203C0013B3242384F841302268D36823F400536B
:10204C00D3602046FFF762FF2268136923F49043A4
:10205C0013612268536923F02A0353612268D36801
:10206C0043F40053D36000206064202384F8413093
:10207C0084F84230606310BD80F84030FFF7E6F919
:10208C00D7E7012070472DE9F04182B01E4690F849
:10209C004130DBB2202B56D104460D469046002928
:1020AC0055D00AB901204FE000234364212380F866
:1020BC004130FEF733FA0746A4F82480A4F82680B2
:1020CC00A368B3F5805F02D04FF0000814E02369D9
:1020DC002BB34FF000080FE0202384F8413003208D
:1020EC0032E038F8023B2268C3F308035360E28CF9
:1020FC0092B2013A92B2E284E38C9BB293B1009615
:10210C003B46002280212046FFF74AFF0028E3D1FE
:10211C00002DE6D015F8012B23685A60E7E7A84696
:10212C000025E9E700963B46002240212046FFF7B8
:10213C0037FF18B9202384F8413005E0202384F8B8
:10214C004130032000E0022002B0BDE8F081012004
:10215C00FAE7704708B50168CA6822F04002CA6005
:10216C00202280F84120FFF7F4FF002008BD7047C3
:10217C00704708B5406A0023C385C384FFF7F8FF96
:10218C0008BD704790F84230DBB2222B69D18368CE
:10219C00B3F5805F4FD0826AB3F5805F04D0002B1B
:1021AC0056D10369002B53D103685B681370836AA3
:1021BC0001338362C38D9BB2013B9BB2C385002B61
:1021CC0051D100B583B00268D36823F02003D360EB
:1021DC000268D36823F48073D3600268536923F0D8
:1021EC0001035361202380F8423000234363036BC7
:1021FC00012B33D100230363026802F10C0353E873
:10220C00003F23F010030C3242E800310029F3D1D7
:10221C0003681A6812F0100F06D0002201921A6897
:10222C0001925B680193019B818DFFF7AAFF00204F
:10223C0003B05DF804FB0269002AACD1826A036822
:10224C005B68C3F308031380836A02338362B1E7CC
:10225C0003685B6803F07F031370A8E7FFF787FF41
:10226C00E5E70220704700207047000010B582B0EF
:10227C00044602681368D068516913F00F0F09D136
:10228C0013F0200F0CD010F0200F09D02046FFF7D0
:10229C0079FF16E011F0010115D110F4907F12D1E5
:1022AC00216B012979D013F0800F03D010F0800F2F
:1022BC0040F0138113F0400F03D010F0400F40F0AA
:1022CC00108102B010BD13F0010F06D010F4807F06
:1022DC0003D0626C42F00102626413F0040F04D06C
:1022EC0019B1626C42F00202626413F0020F04D066
:1022FC0019B1626C42F00402626413F0080F07D04B
:10230C0010F0200F00D119B1626C42F00802626427
:10231C00626C002AD5D013F0200F02D010F0200FE1
:10232C0029D123685B6903F04003626C12F0080F3B
:10233C0000D163B32046FFF78BFD23685B6913F074
:10234C00400F20D0226802F1140353E8003F23F021
:10235C004003143242E800310029F3D1E36B73B12E
:10236C00624A5A63E06BFEF76FFD0028A9D0E06B60
:10237C00436B9847A5E72046FFF704FFD1E72046BB
:10238C00FFF7F6FE9DE72046FFF7F2FE99E72046A1
:10239C00FFF7EEFE0023636493E713F0100F82D077
:1023AC0010F0100F3FF47FAF0023019313680193DB
:1023BC0053680193019B536913F0400F51D0E26BAA
:1023CC0013685B689BB2002B3FF47BAFA18D9942E5
:1023DC007FF677AFE3859369202B37D0226802F123
:1023EC000C0353E8003F23F480730C3242E80031B5
:1023FC000029F3D1226802F1140353E8003F23F0C3
:10240C000103143242E800310029F3D1226802F1B1
:10241C00140353E8003F23F04003143242E8003128
:10242C000029F3D1202384F842300023236322684F
:10243C0002F10C0353E8003F23F010030C3242E886
:10244C0000310029F3D1E06BFEF7DAFC0223636361
:10245C00A18DE38D9BB2C91A89B22046FFF791FE7C
:10246C002FE7A18DE38D9BB2C91A89B2E38D9BB284
:10247C00002B3FF426AF00293FF423AF226802F172
:10248C000C0353E8003F23F490730C3242E8003005
:10249C000028F3D1226802F1140353E8003F23F023
:1024AC000103143242E800300028F3D1202384F8D1
:1024BC00423000232363226802F10C0353E8003FEF
:1024CC0023F010030C3242E800300028F3D1022331
:1024DC0063632046FFF755FEF3E62046FFF7E6FC64
:1024EC00EFE62046FFF736FEEBE600BF7F21000843
:1024FC00FEF710FE0B480C490C4A002302E0D4589E
:10250C00C4500433C4188C42F9D3094A094C002333
:10251C0001E013600432A242FBD3FDF735FEFDF758
:10252C00DFFE7047000000200C000020AC250008E6
:10253C000C000020B0020020FEE77047F8B500BF89
:10254C00F8BC08BC9E467047F8B500BFF8BC08BC88
:04255C009E467047E0
:1025600048656C6C6F20576F726C640A0000000045
:102570000102000002030405060708090A0B0C0DFE
:102580000E0F101000000000010203040000000004
:0C25900000000000010203040607080917
:08259C00AAFFFF7F010000000F
:0425A40075010008B5
:0425A8004D010008D9
:0C25AC00010000001000000000127A0086
:04000005080024FDCE
:00000001FF
